:020000040800F2
:1000000000040020C1010008812B0008812B00089A
:10001000111C0008812B0008812B0008812B00088F
:10002000812B0008812B0008812B0008B14C0008AF
:10003000812B0008812B0008812B0008B1B100083A
:10004000812B000861840008F185000841860008C2
:10005000812B0008812B0008A1810008F181000894
:100060004182000891820008E18200087174000852
:10007000C17400081175000861750008B1750008A9
:100080000176000851760008E17E0008E18700084B
:100090005188000801890008B189000831830008EF
:1000A000812B0008812B000811AC0008812B00086F
:1000B00071AD0008B1AD0008F1AD0008B1950008C0
:1000C000F1960008812B0008812B0008812B000885
:1000D000812B0008812B0008812B000871B20008D9
:1000E000C1830008B18400080185000851AC0008F4
:1000F000812B0008812B0008812B0008A1760008C5
:10010000812B0008418B000831AE0008812B0008CC
:10011000812B0008812B0008D1AB0008812B00083F
:10012000F17600084177000891770008E177000830
:1001300031780008812B000851850008812B0008C8
:10014000812B0008812B0008812B000871A5000875
:1001500081780008D178000821790008812B0008F7
:10016000812B0008812B0008812B0008812B0008BF
:10017000A1850008812B000841180008812B000888
:10018000812B0008812B0008812B0008812B00089F
:10019000812B0008812B0008812B0008812B00088F
:1001A000812B0008812B0008812B0008812B00087F
:1001B000812B0008812B0008812B0008812B00086F
:1001C00072B62E4880F3098840F20000CCF200009D
:1001D0004EF63471CEF20001086040F20000C0F229
:1001E000F0004EF68851CEF2000108604FF000009A
:1001F000E1EE100A4EF63C71CEF2000108600620D6
:1002000080F31488BFF36F8F0BF07AF94FF05530FD
:100210001B491C4A91423CBF41F8040BFAE71A49BA
:10022000164A91423CBF41F8040BFAE71749184AB5
:10023000184B9A423EBF51F8040B42F8040BF8E702
:1002400000201549154A91423CBF41F8040BFAE7DA
:1002500002F07EFC124C134DAC4203DA54F8041B3E
:100260008847F9E701F024FA0F4C104DAC4203DA4D
:1002700054F8041B8847F9E702F07ABC0008002014
:1002800000000020000400200004002018060108DF
:10029000000800201C12002020120020684D0020C1
:1002A000C0010008C0010008C0010008C00100082A
:1002B0002DE9F04F2DED108AC1F80CD0D0F80CD0FC
:1002C000BDEC108ABDE8F08F02F09AFD03F058FDF6
:1002D000002383F311882846A047002003F020FB69
:1002E00003F036FD02F06CFD03F08AF902F088FDA0
:1002F00003F046FD00DFFEE7000000000000000004
:1003000081F0004102E000BF83F0004330B54FEAC6
:1003100041044FEA430594EA050F08BF90EA020F33
:100320001FBF54EA000C55EA020C7FEA645C7FEAC6
:10033000655C00F0E2804FEA5454D4EB5555B8BFE9
:100340006D420CDD2C4480EA020281EA030382EA5A
:10035000000083EA010180EA020281EA0303362DEC
:1003600088BF30BD11F0004F4FEA01314FF4801CBF
:100370004CEA113102D0404261EB410113F0004FD1
:100380004FEA03334CEA133302D0524263EB430388
:1003900094EA050F00F0A780A4F10104D5F1200E26
:1003A0000DDB02FA0EFC22FA05F2801841F1000181
:1003B00003FA0EF2801843FA05F359410EE0A5F155
:1003C00020050EF1200E012A03FA0EFC28BF4CF086
:1003D000020C43FA05F3C01851EBE37101F000453C
:1003E00007D54FF0000EDCF1000C7EEB00006EEB49
:1003F0000101B1F5801F1BD3B1F5001F0CD34908D3
:100400005FEA30004FEA3C0C04F101044FEA445229
:1004100012F5800F80F09A80BCF1004F08BF5FEAB0
:10042000500C50F1000041EB045141EA050130BD90
:100430005FEA4C0C404141EB010111F4801FA4F133
:100440000104E9D191F0000F04BF01460020B1FA88
:1004500081F308BF2033A3F10B03B3F120020CDAC0
:100460000C3208DD02F1140CC2F10C0201FA0CF09E
:1004700021FA02F10CE002F11402D8BFC2F1200C03
:1004800001FA02F120FA0CFCDCBF41EA0C019040B9
:10049000E41AA2BF01EB0451294330BD6FEA040402
:1004A0001F3C1CDA0C340EDC04F11404C4F12002ED
:1004B00020FA04F001FA02F340EA030021FA04F3FF
:1004C00045EA030130BDC4F10C04C4F1200220FA56
:1004D00002F001FA04F340EA0300294630BD21FA94
:1004E00004F0294630BD94F0000F83F4801306BF5A
:1004F00081F480110134013D4EE77FEA645C18BF4E
:100500007FEA655C29D094EA050F08BF90EA020FE4
:1005100005D054EA000C04BF1946104630BD91EADC
:10052000030F1EBF0021002030BD5FEA545C05D1DF
:100530004000494128BF41F0004130BD14F580041E
:100540003CBF01F5801130BD01F0004545F0FE4192
:1005500041F470014FF0000030BD7FEA645C1ABFC7
:10056000194610467FEA655C1CBF0B46024650EAFE
:10057000013406BF52EA033591EA030F41F400212A
:1005800030BD00BF90F0000F04BF0021704730B5B0
:100590004FF4806404F132044FF000054FF0000185
:1005A00050E700BF90F0000F04BF0021704730B546
:1005B0004FF4806404F1320410F0004548BF40421B
:1005C0004FF000013EE700BF42004FEAE2014FEA70
:1005D00031014FEA02701FBF12F07F4393F07F4F4B
:1005E00081F06051704732F07F4208BF704793F04E
:1005F0007F4F04BF41F40021704730B54FF4607461
:1006000001F0004521F000411CE700BF50EA010263
:1006100008BF704730B54FF000050AE050EA01020C
:1006200008BF704730B511F0004502D5404261EB7C
:1006300041014FF4806404F132045FEA915C3FF4BD
:10064000D8AE4FF003025FEADC0C18BF03325FEA5A
:10065000DC0C18BF033202EBDC02C2F1200300FA0B
:1006600003FC20FA02F001FA03FE40EA0E0021FA30
:1006700002F11444BDE600BF0000000000000000CD
:1006800070B54FF0FF0C4CF4E06C1CEA11541DBF28
:100690001CEA135594EA0C0F95EA0C0F00F0DEF8F3
:1006A0002C4481EA030621EA4C5123EA4C5350EAD8
:1006B000013518BF52EA033541F4801143F4801329
:1006C00038D0A0FB02CE4FF00005E1FB02E506F0BA
:1006D0000042E0FB03E54FF00006E1FB03569CF00F
:1006E000000F18BF4EF0010EA4F1FF04B6F5007F15
:1006F00064F5407404D25FEA4E0E6D4146EB060687
:1007000042EAC62141EA55514FEAC52040EA5E500F
:100710004FEACE2EB4F1FD0C88BFBCF5E06F1ED8B9
:10072000BEF1004F08BF5FEA500E50F1000041EBF0
:10073000045170BD06F0004646EA010140EA02009D
:1007400081EA0301B4EB5C04C2BFD4EB0C0541EABF
:10075000045170BD41F480114FF0000E013C00F3D4
:10076000AB8014F1360FDEBF002001F0004170BDF8
:10077000C4F10004203C35DA0C341BDC04F1140411
:10078000C4F1200500FA05F320FA04F001FA05F29D
:1007900040EA020001F0004221F0004110EBD3706A
:1007A00021FA04F642EB06015EEA430E08BF20EA96
:1007B000D37070BDC4F10C04C4F1200500FA04F339
:1007C00020FA05F001FA04F240EA020001F00041CB
:1007D00010EBD37041F100015EEA430E08BF20EA3E
:1007E000D37070BDC4F1200500FA05F24EEA020E86
:1007F00020FA04F301FA05F243EA020321FA04F0B5
:1008000001F0004121FA04F220EA020000EBD3706B
:100810005EEA430E08BF20EAD37070BD94F0000F6B
:100820000FD101F00046400041EB010111F4801F9F
:1008300008BF013CF7D041EA060195F0000F18BF50
:10084000704703F00046520043EB030313F4801F8C
:1008500008BF013DF7D043EA0603704794EA0C0F46
:100860000CEA135518BF95EA0C0F0CD050EA41065C
:1008700018BF52EA4306D1D181EA030101F00041D9
:100880004FF0000070BD50EA410606BF1046194601
:1008900052EA430619D094EA0C0F02D150EA01360D
:1008A00013D195EA0C0F05D152EA03361CBF10464E
:1008B00019460AD181EA030101F0004141F0FE41ED
:1008C00041F470014FF0000070BD41F0FE4141F471
:1008D000780170BD70B54FF0FF0C4CF4E06C1CEA71
:1008E00011541DBF1CEA135594EA0C0F95EA0C0F26
:1008F00000F0A7F8A4EB050481EA030E52EA0335E1
:100900004FEA013100F088804FEA03334FF0805501
:1009100045EA131343EA12634FEA022245EA11152E
:1009200045EA10654FEA00260EF000419D4208BFDF
:10093000964244F1FD0404F5407402D25B084FEA8C
:100940003202B61A65EB03055B084FEA32024FF438
:1009500080104FF4002CB6EB020E75EB030E22BF95
:10096000B61A754640EA0C005B084FEA3202B6EB55
:10097000020E75EB030E22BFB61A754640EA5C0004
:100980005B084FEA3202B6EB020E75EB030E22BF94
:10099000B61A754640EA9C005B084FEA3202B6EB95
:1009A000020E75EB030E22BFB61A754640EADC0054
:1009B00055EA060E18D04FEA051545EA16754FEAB6
:1009C00006164FEAC30343EA52734FEAC2025FEAD4
:1009D0001C1CC0D111F4801F0BD141EA00014FF063
:1009E00000004FF0004CB6E711F4801F04BF014334
:1009F0000020B4F1FD0C88BFBCF5E06F3FF6AFAE50
:100A0000B5EB030C04BFB6EB020C5FEA500C50F1DF
:100A1000000041EB045170BD0EF0004E4EEA113162
:100A200014EB5C04C2BFD4EB0C0541EA045170BD69
:100A300041F480114FF0000E013C90E645EA060EAD
:100A40008DE60CEA135594EA0C0F08BF95EA0C0FDB
:100A50003FF43BAF94EA0C0F0AD150EA01347FF423
:100A600034AF95EA0C0F7FF425AF104619462CE7FA
:100A700095EA0C0F06D152EA03353FF4FDAE10465D
:100A8000194622E750EA410618BF52EA43067FF4AE
:100A9000C5AE50EA41047FF40DAF52EA43057FF43E
:100AA000EBAE12E7000000000000000000000000B4
:100AB0004FEA410212F5001215D211D56FF4787386
:100AC000B3EB625212D94FEAC12343F0004343EA29
:100AD000505311F0004F23FA02F018BF4042704704
:100AE0004FF00000704750EA013005D111F000408E
:100AF00008BF6FF0004070474FF00000704700BF24
:100B00004FEA4102B2F1E04324BFB3F5001CDCF12F
:100B1000FE5C0DD901F0004C4FEAC0024CEA507067
:100B2000B2F1004F40EB830008BF20F00100704796
:100B300011F0804F21D113F13872BCBF01F0004099
:100B4000704741F480114FEA5252C2F11802C2F1CB
:100B5000200C10FA0CF320FA02F018BF40F001004C
:100B60004FEAC1234FEAD32303FA0CFC40EA0C00FE
:100B700023FA02F34FEA4303CCE77FEA625307D13B
:100B800050EA01331EBF4FF0FE4040F44000704772
:100B900001F0004040F0FE4040F40000704700BF0C
:100BA00053B94AB9002908BF00281CBF4FF0FF31D4
:100BB0004FF0FF3000F074B9ADF1080C6DE904CED0
:100BC00000F006F8DDF804E0DDE9022304B0704728
:100BD0002DE9F047089E04468846002B4BD18A42F7
:100BE000154667D9B2FA82F24AB1C2F1200701FA7A
:100BF00002F320FA07F7954047EA030894404FEACA
:100C0000154E230CB8FBFEF71FFA85FC0EFB178868
:100C100043EA084307FB0CF1994209D9EB1807F1A5
:100C2000FF3080F01B81994240F21881023F2B4433
:100C30005B1AA4B2B3FBFEF00EFB103344EA03448C
:100C400000FB0CFCA44509D92C1900F1FF3380F0FE
:100C50000781A44540F2048102382C4440EA074051
:100C6000A4EB0C0400271EB1D4400023C6E90043C6
:100C70003946BDE8F0878B4209D9002E00F0EB80A1
:100C80000027C6E9000138463946BDE8F087B3FAC7
:100C900083F7002F47D18B4202D3824200F2FA80C1
:100CA000841A61EB030301209846002EE0D0C6E9C8
:100CB0000048DDE702B9FFDEB2FA82F2002A40F016
:100CC0008F80491B4FEA154E1FFA85F80127B1FBAB
:100CD000FEFC230C0EFB1C1143EA014308FB0CF144
:100CE000994207D9EB180CF1FF3002D2994200F279
:100CF000CD808446591AA3B2B1FBFEF00EFB10144E
:100D000043EA044408FB00F8A04507D92C1900F178
:100D1000FF3302D2A04500F2B6801846A4EB0804C7
:100D200040EA0C409FE7C7F1200CBB4022FA0CFEC2
:100D30004EEA030E01FA07F420FA0CF521FA0CF33F
:100D40004FEA1E482543B3FBF8F92C0C08FB193376
:100D50001FFA8EFA44EA034309FB0AF49C4202FAA2
:100D600007F200FA07F10BD91EEB030309F1FF307C
:100D700080F087809C4240F28480A9F1020973448C
:100D80001B1BADB2B3FBF8F008FB103345EA03447C
:100D900000FB0AFAA24508D91EEB040400F1FF3358
:100DA0006BD2A24569D90238744440EA0940A0FBDD
:100DB0000289A4EB0A044C45C2464B4654D351D099
:100DC000002E69D0B1EB0A0564EB030404FA0CFCB5
:100DD000FD40FC404CEA0505C6E90054002747E702
:100DE000C2F1200320FA03F7954001FA02F021FA3C
:100DF00003F34FEA154E3843010CB3FBFEF71FFA1D
:100E000085F80EFB173341EA034107FB08F38B42D9
:100E100004FA02F407D9691807F1FF3C2FD28B427C
:100E20002DD9023F2944CB1A81B2B3FBFEF00EFB51
:100E3000103341EA034100FB08F38B4207D96918DC
:100E400000F1FF3C17D28B4215D902382944C91A48
:100E500040EA07473BE73746304609E70746E7E6FB
:100E60001846FBE64145ABD2B8EB020A69EB0E022D
:100E700001381346A4E76046E9E7184695E7674658
:100E8000D1E781467CE702382C4447E7ACF1020CFD
:100E90002B442FE7384608E73746E9E60000000014
:100EA000704700BF000000000000000000000000CC
:100EB000844641EA000313F003036DD1403A41D365
:100EC00051F8043B40F8043B51F8043B40F8043B24
:100ED00051F8043B40F8043B51F8043B40F8043B14
:100EE00051F8043B40F8043B51F8043B40F8043B04
:100EF00051F8043B40F8043B51F8043B40F8043BF4
:100F000051F8043B40F8043B51F8043B40F8043BE3
:100F100051F8043B40F8043B51F8043B40F8043BD3
:100F200051F8043B40F8043B51F8043B40F8043BC3
:100F300051F8043B40F8043B51F8043B40F8043BB3
:100F4000403ABDD2303211D351F8043B40F8043B53
:100F500051F8043B40F8043B51F8043B40F8043B93
:100F600051F8043B40F8043B103AEDD20C3205D363
:100F700051F8043B40F8043B043AF9D2043208D05B
:100F8000D2071CBF11F8013B00F8013B01D30B88CD
:100F900003806046704700BF082A13D38B078DD0AB
:100FA00010F003038AD0C3F10403D21ADB071CBF7D
:100FB00011F8013B00F8013B80D331F8023B20F8E7
:100FC000023B7BE7043AD9D3013A11F8013B00F820
:100FD000013BF9D20B7803704B7843708B788370A8
:100FE00060467047000000000000000000000000A4
:100FF000A2EB0300704700BF02780B78012A28BFDC
:101000009A42F5D16DE9044540EA0104CDE9026751
:101010006FF0000C4FEA447212B380EA010414F03E
:10102000070F6AD100F0070420F0070004F0030561
:1010300021F007014FEAC505F0E8042314F0040F7E
:10104000F1E804670CFA05F462EA040266EA0406B1
:101050000AD063EA0403624667EA0407664603E0CF
:10106000F0E80423F1E8046782FA4CF582EA06040A
:10107000A4FA8CF46CBB83FA4CF583EA0705A5FA55
:101080008CF595B950E9022351E9026782FA4CF5D3
:1010900082EA0604A4FA8CF483FA4CF583EA070585
:1010A000A5FA8CF52543DBD09CB92DBAB5FA85F4A9
:1010B00024F0070427FA04F1DDE9026723FA04F3B8
:1010C00003F0FF0001F0FF01FDE80445A0EB010083
:1010D000704724BAB4FA84F424F0070426FA04F121
:1010E000DDE9026722FA04F202F0FF0001F0FF01DD
:1010F000FDE80445A0EB0100704714F0030F3CD15C
:1011000010F0030428D150F8082B51F8083B82FA5C
:101110004CF582EA0305A5FA8CF55DB950F8042C6C
:1011200051F8043C82FA4CF582EA0305A5FA8CF5E5
:10113000002DE8D02DBAB5FA85F424F0070423FA7F
:1011400004F122FA04F202F0FF0001F0FF01FDE8D1
:101150000445A0EB010070474FEAC40420F00300EF
:1011600050F8082B21F0030151F8083B0CFA04F465
:1011700062EA040263EA0403C9E710F003041AD028
:10118000A1EB040120F00300E40750F8042B06D083
:101190000FD28B785FFAA2F4E41A06D12BB1CB7888
:1011A0005FFAB2F4E41A00D11BB920465DF8104B87
:1011B000704701F1040150F8042BCC0721F0030122
:1011C00051F8043B48D824D222F07F4482FA4CF5EF
:1011D00094EA1325A5FA8CF50AD165B951F8043BB8
:1011E00084EA0204B4EB036F0ED150F8042BEBE752
:1011F0004FEA132355E035F07F454DD10878FDE8DF
:101200000445C0F1000070474FEA126203F0FF038B
:1012100047E002EA1C4482FA4CF594EA1345A5FA29
:101220008CF50AD165B951F8043B84EA0204B4EBA9
:10123000034F0CD150F8042BEBE74FEA134330E097
:1012400015EA1C4528D10B884FEA124229E04FEAE3
:10125000124203EA1C4324E002F0FF0482FA4CF538
:1012600094EA1365A5FA8CF50AD165B951F8043BE7
:1012700084EA0204B4EB032F09D150F8042BEBE706
:101280004FEA13630DE015F0FF0F05D10B684FEA2D
:10129000122223F07F4304E04FF00000FDE80445F4
:1012A000704712BA1BBA82FA4CF482EA0304A4FA19
:1012B0008CF5B5FA85F402FA04F203FA04F34FEA66
:1012C0001260FDE80445A0EB1360704700000000C9
:1012D00090F800F06DE9024520F007016FF0000C76
:1012E00010F0070491F820F040F049804FF000041E
:1012F0006FF00700D1E9002391F840F000F10800F9
:1013000082FA4CF2A4FA8CF283FA4CF3A2FA8CF330
:101310004BBBD1E9022382FA4CF200F10800A4FA97
:101320008CF283FA4CF3A2FA8CF3E3B9D1E90423EB
:1013300082FA4CF200F10800A4FA8CF283FA4CF322
:10134000A2FA8CF37BB9D1E9062301F1200182FADC
:101350004CF200F10800A4FA8CF283FA4CF3A2FAE2
:101360008CF3002BC6D0002A04BF04301A4612BAF0
:10137000B2FA82F2FDE8024500EBD2007047D1E9F3
:10138000002304F00305C4F100004FEAC50514F082
:10139000040F91F840F00CFA05F562EA05021CBF53
:1013A00063EA050362464FF00004A9E7000000006D
:1013B00001F0FF01102A2BDB10F0070F08D010F806
:1013C000013B013A8B422DD010F0070F42B3F6D10A
:1013D000F0B441EA012141EA014122F007047FF023
:1013E00000070023F0E80256083C85EA010586EA7A
:1013F000010685FA47F5A3FA87F586FA47F6A5FAB6
:1014000087F68EB9EED1F0BC01F0FF0102F00702C1
:1014100032B110F8013B013A83EA010313B1F8D16C
:101420000020704701387047002D06BF354603384D
:10143000073815F0010F07D1013015F4807F02BF86
:10144000013015F4C03F0130F0BC0138704700BFD7
:101450004FF0FF3C06E000BF4FF0010C02E000BF80
:101460004FF0010C4DF804CD4FEA410C7FEA6C5C63
:101470004FEA430C18BF7FEA6C5C1BD001B050EA06
:10148000410C0CBF52EA430C91EA030F02BF90EAF1
:10149000020F0020704710F1000F91EA030F58BFB0
:1014A000994208BF90422CBFD8176FEAE37040F012
:1014B000010070474FEA410C7FEA6C5C02D150EAB0
:1014C000013C07D14FEA430C7FEA6C5CD6D152EA6B
:1014D000033CD3D05DF8040B704700BF8446104630
:1014E00062468C461946634600E000BF01B5FFF72F
:1014F000B7FF002848BF10F1000F01BD4DF808EDFF
:10150000FFF7F4FF0CBF012000205DF808FB00BFCF
:101510004DF808EDFFF7EAFF34BF012000205DF829
:1015200008FB00BF4DF808EDFFF7E0FF94BF012076
:1015300000205DF808FB00BF4DF808EDFFF7CEFF77
:1015400094BF012000205DF808FB00BF4DF808EDB6
:10155000FFF7C4FF34BF012000205DF808FB00BF87
:101560004FEA410C7FEA6C5C02D150EA013C0AD19F
:101570004FEA430C7FEA6C5C02D152EA033C02D191
:101580004FF0000070474FF001007047000000006E
:101590000EB410B50A4C0B4923680B4883B0019375
:1015A00006AB1A4600930AF003F8019A23689A42A0
:1015B00004D103B0BDE8104003B0704700F0D0F88C
:1015C0000008002010F50008BC4C002000000000BE
:1015D000F0B5344F83B03B680193064600240125E3
:1015E00005FA04F3B34304F1FF330CBF01210021DA
:1015F000062B05D8DFE803F03733271B170B440011
:10160000084600F01DFA072C44D00134E8E78800B2
:10161000014401EB81018A00D2B21146002303206C
:1016200000F0F6F9F1E7032000F09AF9EDE7880001
:10163000014401EB81018B00DBB21A46002102203C
:1016400000F0E6F9E1E78800014401EB81018B003D
:10165000DBB219460022012000F0DAF9D5E70120BB
:1016600000F07EF9D1E78800014401EB81010022FE
:101670008B0003F0FC031146104600F0C9F9C4E7E3
:10168000019A3B689A420BD1002003B0BDE8F040BC
:1016900000F066B9019A3B689A4201D103B0F0BDEF
:1016A00000F05EF8000800200000000000000000CC
:1016B00070B5214B214E1B68A4B0239303F058FB57
:1016C00001F076FA00F04CFA00F0C2FF1C481D4908
:1016D000054604F015FD01F043F800F019FD00F097
:1016E00007FF194A19491A4801F032F919491848EF
:1016F00001F09EF9044600F04BFF40F24C4000F030
:10170000D7FC154800F0ECFC03A92046802201F02C
:10171000F7F9159A1D9B05990091D31A3146284671
:10172000FFF736FF03A800F033F8FFF751FF0A2058
:1017300002F07EF8E8E700BF0008002010F500087E
:10174000BC4C002020080020040800200C080020C9
:101750002012002050F50008B4FBFFFF000000003D
:1017600000B5084B83B01A680192019A1B689A422F
:1017700005D1054803B05DF804EB01F081BAFFF72D
:10178000EFFF00BF00080020F0F400080000000098
:10179000F0B5DFF858C0144FDCF8003083B00022F9
:1017A00000F1400400F160010193104664254FF000
:1017B000010E01E057F8045B54F8043B51F8046B48
:1017C0009B1BAB4203DB0EFA02F31843C0B201329B
:1017D000082AEFD1019ADCF800309A4201D103B017
:1017E000F0BDFFF7BDFF00BF64F500080008002052
:1017F00030B5104D81682B680F4A83B001930B6898
:1018000023F001030B608168946A03E0936A1B1B59
:10181000C72B09D8086810F00100F7D1019A2B688E
:101820009A4204D103B030BD4FF0FF30F6E7FFF726
:1018300097FF00BF00080020883E00200000000045
:10184000F0B5284D83B02B68019302F049FA01F0FE
:1018500037FB254B1E69F20715D55A69234C42F018
:1018600001025A612778BB1F012B2AD90522636820
:1018700022701B680BB120469847042F27D0022FF7
:1018800025D003232370B30710D5174A174C53698B
:1018900043F0020353612378032B1DD063689B68D8
:1018A0000622227013B101211048984701F030FB45
:1018B000019A2B689A4213D103B0BDE8F04003F0BF
:1018C00017BA019A2B689A420AD103B0F0BD0223DD
:1018D0002370B307EAD5D8E72046FFF789FFDDE795
:1018E000FFF73EFF00080020000005502C120020EA
:1018F00000B5074B07491A68087083B00192019A36
:101900001B689A4202D103B05DF804FBFFF728FF81
:10191000000800204012002000000000000000002D
:1019200010B50B4C0B48236882B0019302F010FCF9
:10193000094802F0EDFD019A23689A4205D1054855
:1019400002B0BDE8104002F03BBCFFF709FF00BF4A
:1019500000080020340800202C08002000000000AF
:1019600070B5294D82B02B6801930E46032841D8EB
:10197000DFE800F01A120A02012922D9234A53692A
:1019800083F40063536116E0012926D91F4A536985
:1019900083F4806353610EE0012918D91B4A53690F
:1019A00083F04003536106E001291CD9174A5369AB
:1019B00083F020035361019A2B689A4218D102B038
:1019C00070BD124B4FF4006229B15A83F3E70F4BFD
:1019D00040220029F9D11A83EDE70C4B4FF48062C5
:1019E0000029F8D0F1E7094B20220029F3D0ECE7D9
:1019F000FFF7B6FE0024E0B231460134FFF7B0FF36
:101A0000042CF8D1D7E700BF00080020000C0240EA
:101A100070B5094D094E2C6882B000EB400001946E
:101A2000315434180198296862708842A37001D13A
:101A300002B070BDFFF794FE0008002044120020A1
:101A400000B50D4B83B01A68019201280BD90B49E0
:101A50004A6982F004024A61019A1B689A4209D1DC
:101A600003B05DF804FB054A042108B95183F3E78C
:101A70001183F1E7FFF774FE000800200004024024
:101A800030B5094B094D044607CB83B02B68019351
:101A9000206001982B6861609842A26001D103B078
:101AA00030BDFFF75DFE00BF44120020000800209B
:101AB0002DE9F043254E83B034680194042A9DF843
:101AC0002890144605460F46984639D9B9F1000FBB
:101AD00014BF00224FF08052640002EB0863013C07
:101AE0001C4405F00F0527F01F07202383F31188FE
:101AF00002F02EF93D4301F063F9154B1035DD601E
:101B00001C6101F07DF902F03BF9124B1A689A4210
:101B100004D0996993688A689A420DD3002383F3AD
:101B20001188BFF36F8FBFF34F8F019A33689A42CA
:101B30000AD103B0BDE8F083074801F0A1F8EDE752
:101B4000064801F09DF8C1E7FFF70AFE00080020F3
:101B500090ED00E0883E002000F60008E0F5000867
:101B600030B5224D224C2B68224A85B0039363681E
:101B700043F004036360536A43F4803353622023C9
:101B800083F3118802F0E4F801F01AF917221A4BD6
:101B9000E260236101F034F902F0F2F8174B1A68A1
:101BA0009A4204D0996993688A689A4218D30020AF
:101BB00080F31188BFF36F8FBFF34F8F03231D2274
:101BC00000904FF00051FFF773FF094A536843F04C
:101BD00001035360039A2B689A4205D105B030BDCA
:101BE000074801F04DF8E2E7FFF7BAFD00080020D2
:101BF00090ED00E000ED00E009000010883E0020BC
:101C000000F60008000000000000000000000000D6
:101C100070B51A4D1A4C1B4E0FCD0FC49EB02A68DA
:101C2000336822801D93EFF30981682203A8FFF730
:101C30003FF9154B9D6AAA0714D4EB0708D5124B40
:101C400008995B6B114A00910D4880210AF098FABF
:101C50001D9A33689A420FD109481EB0BDE8704002
:101C600001F00EB8099A5B6B0092A4F11000084ACB
:101C700080210AF085FAE0E7FFF772FDC4F500085D
:101C8000501200200008002000ED00E0A0F5000840
:101C900080F50008000000000000000000000000C7
:101CA00000B51F4B0278196883B00191E2B11D4A5B
:101CB0004FF4005111834278EAB11A4A4FF480512F
:101CC00011838278F2B1174A4FF480411183C278B0
:101CD000FAB9144A4FF400415183019A1B689A42A1
:101CE0001CD103B05DF804FB0E4A4FF40051518340
:101CF0004278002AE1D10B4A4FF480515183827817
:101D0000002AE0D1074A4FF480415183C278002A6B
:101D1000DFD0044A4FF400411183DEE7FFF720FDD6
:101D20000008002000100240000000000000000039
:101D300000B51F4B0278196883B00191E2B11D4ACA
:101D40004FF4007111834278EAB11A4A4FF480715E
:101D500011838278F2B1174A4FF400611183C2787F
:101D6000FAB9144A4FF480615183019A1B689A4270
:101D70001CD103B05DF804FB0E4A4FF4007151838F
:101D80004278002AE1D10B4A4FF480715183827866
:101D9000002AE0D1074A4FF400615183C278002A3B
:101DA000DFD0044A4FF480611183DEE7FFF7D8FCEF
:101DB00000080020001002400000000000000000A9
:101DC00030B50C4A0C4B116883B04FF400550191AB
:101DD0004FF480544FF400414FF480405D835C83A6
:101DE0005883598301991368994201D103B030BDDA
:101DF000FFF7B6FC000800200010024000000000C1
:101E000030B50C4A0C4B116883B04FF4007501914A
:101E10004FF480744FF480614FF400605D835C8305
:101E20005883598301991368994201D103B030BD99
:101E3000FFF796FC000800200010024000000000A0
:101E400010B50B4C0B48236882B0992200210193F6
:101E500003F086FB019A23689A4206D105480021C7
:101E600002B0BDE8104003F063BCFFF779FC00BF8F
:101E700000080020684C0020000000000000000066
:101E800010B50B4C0B48236882B0992200210193B6
:101E900003F066FB019A23689A4206D105480021A7
:101EA00002B0BDE8104003F043BCFFF759FC00BF8F
:101EB00000080020844C002000000000000000000A
:101EC00000B5084B83B01A680192019A1B689A42C8
:101ED00006D10548002103B05DF804EB03F090BB88
:101EE000FFF73EFC00080020684C002000000000C6
:101EF00000B5084B83B01A680192019A1B689A4298
:101F000006D10548002103B05DF804EB03F078BB6F
:101F1000FFF726FC00080020844C00200000000091
:101F200070B51A4C1A4E2378326882B0022B019297
:101F3000A26811D165781748013505F0070500EB57
:101F40008500904763686570013B6360019A336860
:101F50009A4219D102B070BD012B08D001993368A3
:101F6000994211D10C4802B0BDE870401047657825
:101F70000848013D05F0070500EB850090476368C0
:101F8000657001336360E1E7FFF7EAFBE8120020C8
:101F900000080020A0F6000890F6000800000000ED
:101FA00070B51A4C1A4E2378326882B0012B019218
:101FB000A26811D165781748013505F0070500EBD7
:101FC000850090476368657001336360019A3368E8
:101FD0009A4219D102B070BD022B08D00199336822
:101FE000994211D10C4802B0BDE8704010476578A5
:101FF0000848013D05F0070500EB85009047636840
:102000006570013B6360E1E7FFF7AAFBD012002097
:1020100000080020A0F6000890F60008000000006C
:1020200030B51F4D85B02B68039340F24C43994265
:10203000044626DCA3F69803994211DB4B00002BE3
:1020400029D10370036998474FF47A71039A2B687A
:102050009A421ED1606905B0BDE8304003F038BA3D
:10206000104B02225B42227040F2892293420E49B9
:1020700091FBF3F189B207DC0191E368984701997C
:10208000E4E7012303702D21019123699847019909
:10209000DCE7FFF765FBE4DD01220270E4E700BF47
:1020A0000008002068F7FFFFA08601000000000084
:1020B00000B5084B83B01A680192019A1B689A42D6
:1020C00006D10146044803B05DF804EBFFF7A8BF52
:1020D000FFF746FB00080020D0120020000000009F
:1020E00000B5084B83B01A680192019A1B689A42A6
:1020F00006D10146044803B05DF804EBFFF790BF3A
:10210000FFF72EFB00080020E8120020000000006E
:1021100070B51D4E1D4A1E4B30681E491E4C916005
:1021200082B00021D46001901C4C1D481D4D9D6063
:10213000117051705160106154611B481B4A1C4D55
:10214000D8601C48197059705960C3E90425FFF71D
:10215000A7FD1848FFF7ECFD1749204603F068F982
:10216000204603F09DFA2846144903F061F9019ACC
:1021700033689A4205D1284602B0BDE8704003F0AA
:102180008FBAFFF7EDFA00BF00080020E812002028
:10219000D0120020A11C0008411E0008684C00203D
:1021A000C11E0008311D0008811E0008F11E000834
:1021B000844C002090F6000850F6000810F6000845
:1021C0000A490B4B09680B4A82B02020019140213B
:1021D00058834FF4806559834FF400644FF4804076
:1021E00004215D835C8358835183FEE7000800204F
:1021F000000C02400004024000000000000000004B
:1022000010B51E491E4A0B78106882B0013B019040
:10221000072B0AD8DFE803F012151C1F26290F042C
:1022200018480824012304830B700199136899420C
:1022300021D102B010BD08230B70F6E702230B700A
:10224000F3E711484FF48054032304830B70ECE749
:1022500004230B70E9E70C484FF480440523048302
:102260000B70E2E706230B70DFE706480424072320
:1022700004830B70D9E7FFF773FA00BF80160020C4
:10228000000800200010024000040240000000008E
:1022900030B50C4B0C4918680C4A83B04FF480459C
:1022A00001904FF480504883042408204D835483C8
:1022B0005083019A1B689A4201D103B030BDFFF7E9
:1022C0004FFA00BF00080020000402400010024046
:1022D0002DE9F04F4E4B4F4A9B694F499961A5B08C
:1022E00007AE05AD80231768009331462A460024C7
:1022F0000CA84A4B2397CDE90766CDE90555CDE9F2
:1023000009440B9400F03CFB0CA9454A4548434C5A
:10231000454DDFF83481DFF834B1DFF834A100F047
:1023200057FB04F11C0604F16007A146504601F07A
:10233000AFFD2A682B69226063602A6A2B6BA2605A
:10234000E3606A686B69226163616A6A6B6BA261B0
:10235000E361AA68AB6922626362AA6AAB6BA2629C
:10236000E362EA68EB6922636363EA6AEB6B2F4915
:10237000A263E36351F8043F0A6AB142A3EB02038C
:102380000B64F7D1802249460CA800F079FB98F83D
:102390000030002BCAD09BF8003033B3012BC5D1DD
:1023A000DFF8B0C02248614650F8042B51F8043FD2
:1023B000B84213440B60F7D11E4A13780133DBB2E5
:1023C000642B1370B2D11C495CF8043F1B4A82FB9A
:1023D0000302DB17C3EB621341F8043B184B9C4527
:1023E000F2D1002388F80030A0E7194620221248D5
:1023F000039309F075FE039B12481946202209F049
:102400006FFE0C49039B0B7001228BF800208DE7B7
:10241000883E002000080020C0F600088413002039
:1024200050F5000820120020201300208013002007
:10243000C413002061130020E41300201F85EB511A
:10244000801300206413002060130020621300201A
:102450004808002060130020000000000000000079
:1024600070B502691E4D52882B6882B006460C4634
:102470001C4801939200002109F032FE33695B8809
:102480005BB1184AA11E002331F8020F42F8040B79
:102490003069408801339842F6D8202383F31188AD
:1024A00001F086FC00F0CCFC00F05AFD0E48836879
:1024B000002B0FDD00F0E4FC01F092FC002383F31D
:1024C0001188019A2B68094901209A42087004D1A9
:1024D00002B070BD01F014FDECE7FFF741F900BF59
:1024E000000800202013002048080020801600204B
:1024F00070B51F4D1F4C2E78236884B0012E0393B6
:1025000005D0039A23689A422FD104B070BD0021F0
:10251000284602F045FD284602F002FE33462846D2
:10252000154A164902F0BCFD1549164802F080FF15
:102530004FF496720021134803F012F8002111485D
:1025400003F0F6F80F4803F0ABF831464FF482720F
:102550000C4803F005F80023009340220A4B0B4877
:102560004FF41E7101F00CF9CBE7FFF7F9F800BF4B
:10257000E44500200008002000130020D0F60008E9
:1025800000F700084C4C0020D1220008081400205D
:1025900030B50C4D0C4A2B680C4C83B000210193D4
:1025A000012311702370142001F042F92378002BCD
:1025B000F9D1019A2B689A4201D103B030BDFFF7DF
:1025C000CFF800BF00080020621300206013002035
:1025D00080B5164A164B9269164E17491B68DFF8EC
:1025E0006480164D164C916182B03746019328469F
:1025F000FFF746FA204604F0CBF93B462A460C2169
:10260000204604F045FA204604F002FA3078FFF73D
:102610006FF998F80030033B012B4FF0140002D9FA
:1026200001F006F9E3E7FFF77BF9E0E7883E0020D9
:10263000000800208416002050F70008F82B002026
:10264000E44B00202C1200200000000000000000DD
:1026500010B50C4C0C4923680C4884B0039304F06B
:102660004FF9002300934122094B0A484FF4AF6110
:1026700001F086F8039A23689A4201D104B010BD94
:10268000FFF76EF80008002040F70008E44B002038
:10269000D125000880260020000000000000000076
:1026A00000B50F4B83B01868019002290CD00329A4
:1026B0000CD001290B4818BF0020019A1B689A42D0
:1026C0000BD103B05DF804FB0748F6E7032A96BF79
:1026D0000648002000EBC200EFE7FFF741F800BF1B
:1026E0000008002040F80008E0F70008F0F80008B3
:1026F00070B5154C82B02368019302291CD10D4698
:102700000646202383F3118801F052FB00F098FB6A
:1027100030460E4A012104F0BBFA29460C4A3046E5
:1027200004F0B6FA0B4803F08BFF00F0A9FB01F0B0
:1027300057FB002383F31188019A23689A4201D141
:1027400002B070BDFFF70CF80008002060F7000829
:1027500090F70008F43B002000000000000000009B
:1027600030B5134D134C2B68134883B0019303F01D
:10277000DFFE1249104803F00BFF226D936B23F428
:10278000002393634FF47A7001F052F820460C490D
:1027900004F02EFA226D936B43F400239363019AA5
:1027A0002B689A4201D103B030BDFEF7D9FF00BFBC
:1027B0000008002048490020F43B0020C0F7000832
:1027C000D0F700080000000000000000000000003A
:1027D00000B5084B83B01A680192019A1B689A42AF
:1027E00005D1054803B05DF804EB01F0B1BCFEF77C
:1027F000B7FF00BF000800205408002000000000C0
:1028000000B5084B83B01A680192019A1B689A427E
:1028100005D1054803B05DF804EB01F0D1BCFEF72B
:102820009FFF00BF000800205408002000000000A7
:1028300070B50D4C82B0236801930D1E06460DDD68
:10284000284602F0CDF918B90C2333604FF0FF3061
:10285000019A23689A4205D102B070BD034800F086
:102860000FFAEDE7FEF77CFF0008002010F90008E2
:1028700000B5064B83B01A680192019A1B689A4210
:1028800002D103B05DF804FBFEF76AFF00080020E8
:1028900000B5074B83B01A680192019A1B689A42EF
:1028A00004D103B05DF804EB01F052BCFEF758FF11
:1028B00000080020000000000000000000000000F0
:1028C00000B5074B83B01A680192019A1B689A42BF
:1028D00004D103B05DF804EB01F072BCFEF740FFD9
:1028E00000080020000000000000000000000000C0
:1028F00000B5074B83B01A680192019A1B689A428F
:1029000004D103B05DF804EB01F082BDFEF728FFAF
:10291000000800200000000000000000000000008F
:1029200000B5074B83B01A680192019A1B689A425E
:1029300004D103B05DF804EB01F0EABDFEF710FF2F
:10294000000800200000000000000000000000005F
:1029500010B5084B82B01C68019400240460019CEF
:102960001B689C42C0E9011201D102B010BDFEF704
:10297000F7FE00BF0008002000000000000000007B
:102980002DE9F0430E4D83B02C680194044699461E
:102990000F46164610304C220021DDF8288009F041
:1029A0009FFBC4F80090019A2B68E6609A42C4E944
:1029B000018702D103B0BDE8F083FEF7D1FE00BF6E
:1029C00000080020000000000000000000000000DF
:1029D000F0B5144E83B001F110031746326801922E
:1029E0000446412218460D46002109F079FB39467C
:1029F000402209F00DFC6068FFF74AFF236803B12D
:102A0000AB652560A068FFF773FF019A33689A42AF
:102A100005D1606803B0BDE8F040FFF751BFFEF795
:102A20009FFE00BF00080020000000000000000022
:102A3000F0B5124F83B006463B68406801930D46DF
:102A4000FFF726FF346814B912E0A46D84B104F1D5
:102A500010012846FEF7D0FA0028F6D17068FFF77B
:102A60002FFF019A3B689A42204605D103B0F0BD82
:102A7000B068FFF755FFE5E7FEF772FE000800209B
:102A8000F0B51C4E436883B0054693423068019010
:102A900006D20020019A33689A4229D103B0F0BDD2
:102AA00014460F46A868FFF7F3FE22463946286809
:102AB000FEF7FEF9012385F85130E868FFF718FFAB
:102AC0006C6D84B123681868FFF7E2FE23689D608F
:102AD00023685868FFF70CFF23681868FFF7F0FEBB
:102AE0006468002CEED1A868FFF7EAFE0120D1E768
:102AF000FEF736FE00080020000000000000000085
:102B0000F0B50F4D83B004462B68806801930E46E4
:102B10001746FFF7BDFEE068FFF702FF3A46304672
:102B20002168FEF7C5F9019A2B689A4205D1A06881
:102B300003B0BDE8F040FFF7C3BEFEF711FE00BFD3
:102B4000000800200000000000000000000000005D
:102B500000B5064B83B01A680192019A1B689A422D
:102B600002D103B05DF804FBFEF7FAFD0008002077
:102B7000024B82B01B680193FEE700BF00080020F3
:102B800000B5044B04481B6883B0019300F078F84B
:102B9000FEE700BF0008002020F900080000000048
:102BA000024B82B01B680193FEE700BF00080020C3
:102BB000F0B5294E294B3268294885B0002403928C
:102BC0009C60D968274A4FF6FF0529400A43DA601E
:102BD000C2682549254D42F08072C2600A6842F001
:102BE00001020A6010202022D87783F8222000F00A
:102BF000DFFA00F045FA00F0FBFF01F0C9FF02F038
:102C000037F801F04DF800F0FBF9402105F5886038
:102C100000F01EFD0127164BC36180F82070A861EB
:102C200000F0A6F884F3118862B6AB69114A9A6184
:102C30004FF4C4713A46104B009405F59D6000F0C6
:102C40009FFD039A33680D4981619A4201D105B015
:102C5000F0BDFEF785FD00BF0008002000ED00E09C
:102C6000F0ED00E00003FA05001000E0883E0020CF
:102C700000040020A0FA0008A12B000840F9000879
:102C800000B5054B83B01B680193044672B6FFF78D
:102C900097FA024BDC62FEE700080020883E002025
:102CA0002DE9F047DFF890A0224DDAF8003082B02D
:102CB000019300F055F9AB6993F8232012B1013A62
:102CC00083F823205A6ADFF8748001325A6200F0D8
:102CD00047F9AB6AEA6901334245AB6220D0936899
:102CE000013B9360EC69A668D6B94FF020092368D0
:102CF000E768E660C3F804802368EB6100F0C0F881
:102D000001F06EF886F311882069B84789F31188BD
:102D100001F04EF800F094F8EC69A368002BE6D0BF
:102D2000019ADAF800309A4202D102B0BDE8F08789
:102D3000FEF716FD883E002000080020A43E00207B
:102D400010B5094C094A236882B001935168536851
:102D50005B1A9842FBD8019A23689A4201D102B0CB
:102D600010BDFEF7FDFC00BF00080020001000E0D1
:102D700000B50E4A0E4B116B186883B0019009B96B
:102D8000526B4AB1019A1B689A420CD1094803B0B0
:102D90005DF804EBFFF774BF019A1B689A4202D1F9
:102DA00003B05DF804FBFEF7DBFC00BF883E0020AB
:102DB0000008002050F9000800000000000000009A
:102DC00030B50B4C0B4D236B2A6883B001920BB9C5
:102DD000636B13B10848FFF753FF019A2B68012179
:102DE0009A42616301D103B030BDFEF7B9FC00BF68
:102DF000883E00200008002080F900080000000044
:102E000030B50C4C0C4D236B2A6883B0019253B93A
:102E1000636B002B07DD019A2B6800219A426163E6
:102E200005D103B030BD0548FFF72AFFF3E7FEF7F1
:102E300097FC00BF883E002000080020A0F9000891
:102E400030B50B4C0B4D236B2A6883B0002B0192DD
:102E500001DD636B13B10848FFF712FF019A2B687D
:102E600001219A42616301D103B030BDFEF778FCC5
:102E7000883E00200008002090F9000800000000B3
:102E800030B50C4C0C4D236B2A6883B0002B01929B
:102E90000ADD636B002B07DD019A2B6800219A4243
:102EA000616305D103B030BD0448FFF7E9FEF3E7E5
:102EB000FEF756FC883E002000080020B0F900080C
:102EC00030B50F4D83B02B680193202383F3118815
:102ED0000C4C236B002B01DB626B1AB10A48FFF725
:102EE000CFFE236B01332363002383F31188019A00
:102EF0002B689A4201D103B030BDFEF731FC00BF10
:102F000000080020883E002060F900080000000052
:102F100030B50F4D83B02B680193202383F31188C4
:102F20000C4C236B002B01DD626B1AB10A48FFF7D2
:102F3000A7FE236B013B2363002383F31188019ACF
:102F40002B689A4201D103B030BDFEF709FC00BFE7
:102F500000080020883E002070F9000800000000F2
:102F600000B50F4A0F4B116B186883B00029019010
:102F700009DB526B002A06DD019A1B689A420CD1CC
:102F800003B05DF804FB019A1B689A4205D106481C
:102F900003B05DF804EBFFF773BEFEF7E1FB00BF83
:102FA000883E002000080020C0F900080000000052
:102FB00000B50E4A0E4B116B186883B0019049B9E9
:102FC000526B002A06DD019A1B689A420CD103B0AD
:102FD0005DF804FB019A1B689A4205D1054803B0CD
:102FE0005DF804EBFFF74CBEFEF7BAFB883E00200D
:102FF00000080020D0F900080000000000000000D8
:1030000010B5084A084B116882B04024019101991B
:10301000126818199142C3E90E4001D102B010BDE7
:10302000FEF79EFB00080020883E00200000000004
:1030300010B51149114B0A6882B00192DA6B9C6A93
:103040001460DA6B9C695460DA6B846A9460DA6BA2
:1030500090F820001073DA6B03F58860103282421A
:1030600028BF03F14002DA63019A0B689A4201D14A
:1030700002B010BDFEF774FB00080020883E00205F
:1030800010B50B4A0B4B116882B04FF0FF34019121
:1030900000219962019811685C6203F11C02884268
:1030A000C3E9072201D102B010BDFEF759FB00BFF2
:1030B00000080020883E0020000000000000000002
:1030C0002DE9F041184E82B00546306801900C465B
:1030D00017469846FFF744FF05B3FFB1F4B1C5E9C1
:1030E00003781248C3699A68944204D91B68A41AE9
:1030F0009A68A242FAD32B605A686A6015605D60D4
:10310000AC609968019D3268091B95424FF0FF340D
:103110009960446206D102B0BDE8F0810448FFF72F
:10312000AFFDDCE7FEF71CFB00080020883E002016
:10313000E0F90008000000000000000000000000AE
:1031400030B5164D83B004462B680193FFF708FF96
:10315000ECB1E368BBB12268A068936801990344AD
:103160009360D4E900231A6020682B680C4A6568D4
:10317000456099424FF000054FF0FF30E560506226
:1031800009D103B030BD0748FFF77AFDE3E70548F2
:10319000FFF776FDDDE7FEF7E3FA00BF0008002049
:1031A000883E0020F0F90008000000000000000048
:1031B00000B50A4A0A4B11681B6083B000200191D8
:1031C000019912685B609142C3E90433986002D1AF
:1031D00003B05DF804FBFEF7C3FA00BF000800204F
:1031E000883E0020000000000000000000000000F9
:1031F00030B5164D83B004462B680193FFF7B0FE3F
:10320000ECB194F82030B3B10F2B14D00022A16898
:103210000F4B84F820201B689A688A42FBD22360F7
:103220005A686260146001992A685C609142204685
:1032300009D103B030BD0748FFF722FDE6E7054896
:10324000FFF71EFDDDE7FEF78BFA00BF0008002048
:10325000883E002000FA0008000000000000000086
:1032600070B5204D82B02B6801930446202383F370
:10327000118800F09DFDFFF7E3FD94F82030072B47
:1032800011D8DFE803F0161010230A04100AA66A0A
:10329000FFF766FEB3680133B360D4E900231A6018
:1032A000D4E900325A604FF0FF33A3622046FFF7A3
:1032B0009FFFFFF7E5FD00F093FD002383F31188E6
:1032C000019A2B689A420BD102B070BDA36A00220A
:1032D0001A604FF0FF33A3622046FFF789FFE8E74B
:1032E000FEF73EFA00080020000000000000000089
:1032F000F0B5194E194C336883B007460193FFF7B8
:1033000057FEA569236885F82070142285F82320CC
:103310001A68226001215460284683F82010A361B6
:10332000FFF786FE2946A06900F0F2FCEFF309835F
:10333000EA69643B9A4202D90948FFF7A1FC019A65
:1033400033689A4206D1A069294603B0BDE8F0402F
:10335000FCF7AEBFFEF704FA00080020883E00200C
:1033600010FA00080000000000000000000000004B
:10337000F0B5154C87B0236805930E460746FFF756
:1033800017FE731C18D0114D114AAB6931466846BF
:10339000FFF796FE3846FFF7ABFFFFF7E1FD039B13
:1033A00013B16846FFF7CCFE059A2368A9699A42D3
:1033B000886A06D107B0F0BD3846FFF799FF034D84
:1033C000F2E7FEF7CDF900BF00080020883E00209C
:1033D0006132000800000000000000000000000052
:1033E000F0B51E4D1E4E2B6883B0044601930F4668
:1033F000FFF7DEFDB069A7628368A2689A421DD913
:10340000FFF7F6FE0123074684F82030B461FFF78A
:103410000FFE3946204600F07BFCEFF30983FA6982
:10342000643B9A4214D8019A2B689A4214D13946C7
:10343000204603B0BDE8F040FCF73ABF019A2B6884
:103440009A4209D1204603B0BDE8F040FFF7D0BE54
:103450000448FFF715FCE6E7FEF782F900080020B4
:10346000883E002010FA0008000000000000000064
:1034700010B50E490E4B8A69086892F823101C6833
:103480008068926882B0019449B9904234BF0020AC
:103490000120019A1B689A4206D102B010BD9042E9
:1034A00094BF00200120F4E7FEF75AF9883E00207F
:1034B00000080020000000000000000000000000E4
:1034C00070B5184C184E2368A5691A6822605460BC
:1034D000012283F8202082B01422316885F823204D
:1034E0002846A3610191FFF783FE2846FFF7A0FD60
:1034F0002946A06900F00CFCEFF30983EA69643BFC
:103500009A4202D90948FFF7BBFB019A33689A42F5
:1035100006D1A069294602B0BDE87040FCF7C8BEDC
:10352000FEF71EF9883E00200008002010FA00086F
:1035300070B51C4D1C4E2A68AC6913682B600121C4
:1035400082B05D60002082F82010AA613268A16814
:1035500084F82000019200E01B689A688A42FBD838
:1035600023605A686260204614605C60FFF760FD6B
:103570002146A86900F0CCFBEFF30983E269643BC4
:103580009A4202D90948FFF77BFB019A33689A42B5
:1035900006D1A869214602B0BDE87040FCF788BE9C
:1035A000FEF7DEF8883E00200008002010FA000830
:1035B00010B50F4C82B023680193FFF7F9FCFFF7B9
:1035C000CFFC0C4B1A689B6992689B689A42019ADF
:1035D000236803D89A4208D102B010BD9A4204D1A0
:1035E00002B0BDE81040FFF7A3BFFEF7B9F800BF77
:1035F00000080020883E00200000000000000000BD
:1036000000B50E4A0E4B9269196892F8232083B0D8
:10361000019142B1019A1B689A420DD103B05DF845
:1036200004EBFFF785BF019A1B689A4204D103B0EF
:103630005DF804EBFFF744BFFEF792F8883E0020E8
:103640000008002000000000000000000000000052
:10365000F0B51A4A1A4D02610446816083B0142302
:1036600050692E68616484F8233002270023012109
:10367000278484F82210C4E90F3304F16801A361A0
:10368000019604F12C07636204F1500604F1300343
:1036900060610461C4E90C33E1613046E762546162
:1036A00000F03EFA304600F05BFA019A2B689A422D
:1036B00002D1204603B0F0BDFEF752F8883E00204C
:1036C00000080020000000000000000000000000D2
:1036D00010B5094B82B01C680194884203D200F8EF
:1036E000012B8142FBD1019A1B689A4201D102B0A1
:1036F00010BDFEF735F800BF0008002000000000F4
:103700002DE9F043184E83B0346801940546DDF886
:1037100028900C4617469846FFF722FC15B1B4F5E1
:10372000BC7F19D21148FFF7ABFAA4F16401294418
:10373000E960C1F84080EB68019AC3F844903368AF
:10374000E9680B4808669A420CD13946284603B00E
:10375000BDE8F043FFF77CBF7F2FE3D8B8F1000F3F
:10376000E3D1DFE7FDF7FCFF0008002060FA000866
:10377000C902000800000000000000000000000076
:103780002DE9F04FDFF8A48087B0D8F80040DDF8CD
:103790004090059407468A46934600F16806044621
:1037A000FF2504F8015BA642FBD107EB0A05A54201
:1037B00004D9552604F8016BA542FBD103932022BE
:1037C00082F3118800F0C4FAFFF7FAFA039BCDF8F0
:1037D00000905A4651463846FFF792FF00210446B2
:1037E000FFF7FEFDFFF70CFB00F0CAFA0D4B1A685D
:1037F0009A4204D0996993688A689A420BD300234D
:1038000083F31188059AD8F800309A42204606D1F1
:1038100007B0BDE8F08F0448FFF732FAEFE7FDF795
:103820009FFF00BF883E002020FA0008000800200B
:1038300030B5184C83B0236801930546202383F3E9
:10384000118800F085FAFFF7BBFA15B91248FFF7A7
:1038500017FA29460820FFF78BFDFFF7D1FA00F091
:103860008FFA0E4B1A689A4204D0996993688A6855
:103870009A4208D3002383F31188019A23689A425D
:1038800005D103B030BD0648FFF7FAF9F2E7FDF7BE
:1038900067FF00BF0008002030FA0008883E0020C3
:1038A00020FA0008000000000000000000000000F6
:1038B00070B5164B164E9C693268E36AA06282B0FE
:1038C00004F12C05AB42019207D01A68E262184657
:1038D000FFF78EFCE36AAB42F7D194F821309B07E7
:1038E00005D1D4E904231A61D4E904325A610F20C6
:1038F000FFF7FEFC019A33689A4205D1054802B0F1
:10390000BDE87040FFF7BCB9FDF72AFF883E0020F4
:103910000008002070FA000800000000000000000D
:1039200030B50C4C83B0236801930546202383F304
:10393000118800F00DFAFFF743FA019A23689A42C2
:1039400005D1284603B0BDE83040FFF7B1BFFDF711
:1039500007FF00BF0008002000000000000000007A
:10396000F0B50D4D0D4E03682A68B76983B0044663
:10397000019213B10A48FFF783F927600320BC6264
:10398000FFF7B6FC019A2B68B1699A42886A01D1A7
:1039900003B0F0BDFDF7E4FE00080020883E0020E3
:1039A00080FA000800000000000000000000000095
:1039B000F0B5124D04682B6883B00193B4B194F84C
:1039C0002030032B06460F460CD100233360019AAA
:1039D0002B68A7629A420FD1204603B0BDE8F040A1
:1039E000FFF706BC0648FFF74BF9EEE7019A2B6894
:1039F0009A4201D103B0F0BDFDF7B2FE00080020ED
:103A000090FA000800000000000000000000000024
:103A100030B5104A83B01368019381B10E4B019DFC
:103A20009B69186044685C6023601268436095423B
:103A30000DD1042003B0BDE83040FFF799BC0199D7
:103A4000136899424FF0FF3001D103B030BDFDF74C
:103A500087FE00BF00080020883E00200000000014
:103A600070B5124D04682B6882B0A042019315D046
:103A700023680360586094F82030042B0E4602D06F
:103A80000B48FFF7FDF8019A2B68A6629A420BD10A
:103A9000204602B0BDE87040FFF7AABB019A2B6830
:103AA0009A4201D102B070BDFDF75AFE0008002015
:103AB00040FA0008000000000000000000000000C4
:103AC0002DE9F041DFF850800468D8F8003082B06A
:103AD000A042019313D00F4F05460E4623682B607A
:103AE0005D6094F82030042B02D03846FFF7C8F808
:103AF000A6622046FFF77CFB2C68A542EED1019A16
:103B0000D8F800309A4202D102B0BDE8F081FDF74A
:103B100027FE00BF40FA0008000800200000000057
:103B200030B50B4B83B01A6801924FF0FF32026040
:103B300001991A680024002300259142C0E9044538
:103B4000C0E90133C36001D103B030BDFDF708FE09
:103B5000000800200000000000000000000000003D
:103B600000B5084B084A196883B001915168019A61
:103B70001B6881609A4202D103B05DF804FBFDF737
:103B8000EFFD00BF00080020001000E00000000072
:103B9000F0B51449144B0A68846883B00192134A43
:103BA0005B68D2F8A864C2681B1BD0E904450132E7
:103BB0009B1BC26042688360E61845F10007934290
:103BC000C0E9046709D80268934238BF0360019ACC
:103BD0000B689A4203D103B0F0BD4360F7E7FDF7ED
:103BE000BFFD00BF00080020001000E0883E00205C
:103BF00030B5114D114C2B6889B04FF0FF31079350
:103C0000002300226846C4F8A834CDE901330393A9
:103C10000023CDE904230091FFF7A2FF6846FFF7D8
:103C2000B7FF079A2B680299C4F8A8149A4201D1E9
:103C300009B030BDFDF794FD00080020883E00204B
:103C40002DE97048134E144B326883B001925B68C3
:103C50008B60D0E902411B1BD0E90445426814EB9C
:103C6000030B45F1000C01319342C0E90231C0E978
:103C700004BC0AD80268934238BF0360019A3368D3
:103C80009A4204D103B0BDE870884360F6E7FDF7BF
:103C900067FD00BF00080020001000E000000000E9
:103CA00030B50D4D0D4C2B6883B004F59760019332
:103CB0000023C4F8B034C4F8B434FFF731FF019ADC
:103CC0002B689A4206D104F59A6003B0BDE83040F3
:103CD000FFF726BFFDF744FD00080020883E0020C6
:103CE00000B50949094A0B6883B001930198D2F8DD
:103CF000B034096801338842C2F8B03402D103B04D
:103D00005DF804FBFDF72CFD00080020883E002034
:103D100070B50D4C0D4A236882B00193019DD2F815
:103D2000B43424680133A542C2F8B43409D10E4634
:103D300000F1500106F1500002B0BDE87040FFF7FD
:103D40007FBFFDF70DFD00BF00080020883E00206A
:103D500000B5084B83B01A680192019A1B689A4219
:103D600005D1054803B05DF804EBFFF7F9BEFDF798
:103D7000F7FC00BF000800204043002000000000C6
:103D800000B5084B83B01A680192019A1B689A42E9
:103D900005D1054803B05DF804EBFFF7F9BEFDF768
:103DA000DFFC00BF000800204043002000000000AE
:103DB00000B5084B83B01A680192019A1B689A42B9
:103DC00005D1054803B05DF804EBFFF7C9BEFDF768
:103DD000C7FC00BF0008002058430020000000007E
:103DE00000B5084B83B01A680192019A1B689A4289
:103DF00005D1054803B05DF804EBFFF7C9BEFDF738
:103E0000AFFC00BF00080020584300200000000065
:103E100070B51B4D82B004462B680193FFF7C8F8BC
:103E200044B3A3682268002B10DBA24203D01548DC
:103E3000FEF726FFA368013B002BA3600CDB0020EC
:103E4000019A2B689A4219D102B070BDA242EED0FD
:103E5000013B002BA360F2DA0B4EB3699C621C603D
:103E600062685A60052013606360FFF741FAB36926
:103E7000986AE5E70348FEF703FFD2E7FDF770FC19
:103E800000080020D0FA0008883E00200000000052
:103E900030B5164C83B0236801930546202383F385
:103EA0001188FFF755FFFEF78BFF2846FFF7B0FF9D
:103EB0000546FEF7A5FFFFF763FF0D4B1A689A4210
:103EC00004D0996993688A689A4209D3002383F3DE
:103ED0001188019A23689A42284605D103B030BD63
:103EE0000448FEF7CDFEF1E7FDF73AFC000800209C
:103EF000883E0020C0FA000800000000000000001A
:103F000030B51C4D83B004462B680193FFF728F8A9
:103F10004CB3A3682268002B0FDBA24203D01648E3
:103F2000FEF7AEFEA3680133002BA3600BDD019A00
:103F30002B689A421BD103B030BDA242EFD00133AF
:103F4000002BA360F3DC20680199036823602A68D2
:103F50005C6091424FF00003836208D103B0BDE87A
:103F60003040FFF745B90448FEF78AFED1E7FDF778
:103F7000F7FB00BF00080020E0FA00080000000086
:103F800030B50B4D83B02B680193044650B12460CB
:103F900001992A68646000239142A360236105D1DE
:103FA00003B030BD0348FEF76BFEF0E7FDF7D8FB2A
:103FB0000008002000FB00080000000000000000D6
:103FC000F0B55D4E5D4B32689D6983B00446019249
:103FD000FEF7EEFF002C00F08480A0682369002823
:103FE00043D0002B40F39780854276D0AA6883683F
:103FF0009A4208D990F820308260062B40D0072BD7
:1040000073D0002B5DD02746234603E09968AA6849
:10401000914233D31B689C42F8D12F607B686B6060
:1040200006201D607D60AC62FFF762F9A368AB42B9
:1040300002D04348FEF724FE2B6CA34202D0404836
:10404000FEF71EFE2369012B05D1019A33689A42BF
:104050006FD103B0F0BD019A33689A4269D13848F4
:1040600003B0BDE8F040FEF70BBE002B58D1013382
:10407000A56023612B6CE3602C64E6E71F46CCE768
:10408000D0E900231A60D0E900325A60876A3B46C3
:1040900003E099688268914247D31B689F42F8D138
:1040A00007607B68436018607860836AAA689868D4
:1040B00083689342A7D290F820308260062B9ED16D
:1040C000DEE7D0E90023012180F820101A60D0E952
:1040D00000325A60FFF78CF895E7236901332361BA
:1040E000B3E71748FEF7CCFD77E7D0E900231A6065
:1040F000D0E900325A60876A3B4603E099688268DB
:10410000914214D31B689F42F8D107607B684360DB
:104110001860786077E70A48FEF7B2FDA06863E7A9
:104120000748FEF7ADFD2369A1E71F46B8E71F4624
:10413000EBE7FDF715FB00BF00080020883E0020DC
:1041400010FB00080000000000000000000000005C
:1041500030B5154C83B0236801930546202383F3C3
:104160001188FFF7F5FDFEF72BFE2846FFF728FF25
:10417000FEF746FEFFF704FE0C4B1A689A4204D085
:10418000996993688A689A4208D3002383F3118857
:10419000019A23689A4205D103B030BD0448FEF766
:1041A0006FFDF2E7FDF7DCFA00080020883E0020F2
:1041B000F0FA00080000000000000000000000000D
:1041C0002DE9F043DFF800813C4FD8F80030BE699C
:1041D00083B005460193002864D0202383F311881F
:1041E000FFF7B6FDFEF7ECFD336C002B5ED09B684D
:1041F000B34202D03248FEF743FD2B69002B49DD64
:10420000013B2B615BBB336CAB4202D02C48FEF709
:1042100037FDEB683364FEF7CBFE2B689D423ED042
:10422000D6E910495CB1FEF7C3FE23689C4203D077
:104230009B68994538BF9946E468002CF3D1C6F8CD
:1042400008902B6801222A611A682A605560AB60C9
:104250001A6CEA6018461D640021FFF7C1F8FEF7EA
:10426000CFFDFFF78DFD3B68BB4204D0BA699B6868
:1042700092689A420AD3002383F31188019AD8F8EE
:1042800000309A4217D103B0BDE8F0830D48FEF725
:10429000F7FCF0E70A48FEF7F3FC2B69B0E70023D0
:1042A000AB60DCE70648FEF7EBFC96E70448FEF758
:1042B000E7FC336C9BE7FDF753FA00BF883E002014
:1042C00020FB0008F0FA00080008002000000000B1
:1042D0002DE9F041DFF8D880334BD8F800209E69F3
:1042E00082B005460192FEF763FE002D4FD0336C7D
:1042F000002B52D09B68B34202D02C48FEF7C0FC82
:104300002B69002B3EDD013B2B61002B32D1336C3E
:10431000AB4202D02548FEF7B3FCEB683364FEF7EE
:1043200047FE2B689D4223D0D6E910475CB1FEF7CB
:104330003FFE23689C4203D09B689F4238BF1F46C4
:10434000E468002CF3D1B7602868019901232B6140
:1043500003682B60D8F800205D60A860036CEB60F8
:10436000914205641ED102B0BDE8F041FEF740BFA6
:104370000023AB60019AD8F800309A4212D102B003
:10438000BDE8F0810948FEF77BFC2B69BBE70748D5
:10439000FEF776FC336C002BACD10448FEF770FCC2
:1043A000336CA7E7FDF7DCF9883E002030FB0008FE
:1043B00000080020000000000000000000000000D5
:1043C00070B5114E82B0044633680193FEF7C8FD04
:1043D0009CB12068A0420AD06FF0010503682360F9
:1043E0005C60FEF705FF85622068A042F6D1019A65
:1043F00033689A4205D102B070BD0448FEF740FC14
:10440000E7E7FDF7ADF900BF0008002050FB00080A
:1044100030B5164C83B0236801930546202383F3FF
:104420001188FFF795FCFEF7CBFC2846FFF7C8FF85
:10443000FFF7BEF8FEF7E4FCFFF7A2FC0C4B1A688E
:104440009A4204D0996993688A689A4208D30023F3
:1044500083F31188019A23689A4205D103B030BDD5
:104460000448FEF70DFCF2E7FDF77AF9000800209A
:10447000883E002040FB0008000000000000000013
:104480002DE9F0411E4F1F4E3B68B46982B00546CE
:104490000193FEF78DFD65B3236C33B3B369D3F895
:1044A00040804046FFF714FF2E46A5622B4603E0EE
:1044B0009968A268914216D31B689D42F8D1266084
:1044C0007368636007201C607460FEF711FF40464C
:1044D000A46AFFF775FD019A3B689A4220460CD109
:1044E00002B0BDE8F0811E46E9E70748FEF7C8FBC9
:1044F000D4E70548FEF7C4FBCEE7FDF731F900BF6E
:1045000000080020883E002070FB0008000000002A
:1045100030B5164C83B0236801930546202383F3FE
:104520001188FFF715FCFEF74BFC2846FFF7A8FFA4
:104530000546FEF765FCFFF723FC0D4B1A689A420F
:1045400004D0996993688A689A4209D3002383F357
:104550001188019A23689A42284605D103B030BDDC
:104560000448FEF78DFBF1E7FDF7FAF8000800209C
:10457000883E002040FB0008000000000000000012
:1045800070B5184E82B00446336801930D46FEF7AD
:10459000E7FC0CB3E16B94F8203029430A2BE1636C
:1045A00016D00B2B05D0019A33689A4218D102B06D
:1045B00070BDA36A8B43F6D1019A336800219A42F9
:1045C000A1620DD1204602B0BDE87040FEF710BEDA
:1045D000A36A1942F0D1E6E70348FEF751FBD9E799
:1045E000FDF7BEF800080020A0FB00080000000056
:1045F000F0B5134F83B006463B6801930D46FEF7B6
:10460000AFFCB6B13468A6420DD0E3682B43E3603B
:1046100015B12269134203D0D4E90101FFF7B0FFBD
:104620002468A642F1D1019A3B689A4205D103B0B1
:10463000F0BD0448FEF724FBE4E7FDF791F800BF66
:104640000008002080FB00080000000000000000BF
:1046500070B50C4CC16082B0266801960A440060B7
:10466000019E02612268069D4060C0E905119642E4
:104670004FF00001C3618160056201D102B070BDDD
:10468000FDF76EF8000800200000000000000000A8
:1046900030B50D4D83B02B6801930446FEF760FCE6
:1046A00001992A68E368A36100209142A0606361D8
:1046B00007D120466FF0010103B0BDE83040FFF79D
:1046C000FFB9FDF74DF800BF000800200000000012
:1046D00070B5164D82B004462B6801930E46FEF766
:1046E0003FFCFEF73DFCD4E905239A42A36816D0AF
:1046F0000133511CA36061611670D4E904329A42FF
:104700000AD220460021FFF7ABF90020019A2B685E
:104710009A4209D102B070BDE3686361F1E7002BF2
:10472000E6D06FF00300F1E7FDF71AF8000800206B
:10473000F0B5234F83B03B68019304460E46202317
:1047400083F31188FFF704FBFEF73AFBE36943B1FB
:104750002046984705E031462046FFF759F9051EE7
:1047600010DBFEF7FDFBA368002BF4D0A1692069E4
:104770004A1C013B8242A360A26128BFE3680D7816
:1047800028BFA361FEF73CFBFFF7FAFA0D4B1A684E
:104790009A4204D0996993688A689A4209D300239F
:1047A00083F31188019A3B689A42284605D103B0E9
:1047B000F0BD0548FEF764FAF1E7FCF7D1FF00BF52
:1047C00000080020883E0020B0FB00080000000028
:1047D0002DE9F04FDFF8F490044685B0D9F80000D9
:1047E00003908A461D46D4F81C809346002A60D068
:1047F000202383F311880193FFF7AAFAFEF7E0FA6A
:104800002F4E0027B8F1000F07D02046C04704E024
:1048100029462046FFF7FCF860BBFEF7A1FBA36822
:10482000002BF5D0A269013B511CA161A360137854
:104830000AF8013B2369A2699A4224BFE368A36195
:10484000FEF7DEFAFFF79CFA3368B34204D0B26990
:104850009B6892689A4228D3002383F3118801371A
:10486000BB4519D0019B83F31188FFF771FAFEF75E
:10487000A7FAC7E7FEF7C4FAFFF782FA3368B34234
:1048800007D0B2699B6892689A4202D20D48FEF73F
:10489000F7F9002383F31188039AD9F800309A427C
:1048A00038460AD105B0BDE8F08F0648FEF7E8F9B2
:1048B000D2E70548FEF7E4F99AE7FCF751FF00BF9D
:1048C000883E0020B0FB0008C0FB00080008002064
:1048D00070B50B4D82602E68C16082B0C0E90000E7
:1048E00001960A44019E02612A68069C9642C0E92C
:1048F0000511C0E9073401D102B070BDFCF730FFEB
:10490000000800200000000000000000000000007F
:1049100030B50D4D83B004462B680193FEF720FBA4
:10492000D4E9032301982968A2619B1A8842626135
:10493000A36007D120466FF0010103B0BDE830400D
:10494000FFF7BEB8FCF70CFF0008002000000000D5
:104950002DE9F0412E4F82B03B6801930446884612
:104960001646202383F31188FFF7F2F9FEF728FAA1
:1049700005E031462046FFF74BF8051E2DDBFEF71C
:10498000EFFAA368002BF4D06269013B511C61610E
:10499000A36082F80080D4E904329A4224BFE3681D
:1049A0006361E3690BB120469847FEF729FAFFF7E8
:1049B000E7F9184B1A689A4204D0996993688A6893
:1049C0009A421ED3002585F31188019A3B689A42CA
:1049D00028461AD102B0BDE8F081FEF711FAFFF7C0
:1049E000CFF90C4B1A689A4207D0996993688A6884
:1049F0009A4202D20848FEF743F9002383F3118854
:104A0000E3E70548FEF73CF9DCE7FCF7A9FE00BF49
:104A100000080020883E0020B0FB000800000000D5
:104A200070B5154E82B0044633680193FEF798FACC
:104A3000FEF796FAD4E905329342A36815D02069AF
:104A4000511C0133A360A161814215780AD220462E
:104A50000021FFF705F82846019A33689A4209D1E8
:104A600002B070BDE368A361F1E7002BE7D06FF0FF
:104A70000200F1E7FCF774FE0008002000000000CF
:104A80002DE9F04F04463B48D4F81C90006885B0EF
:104A90000D46039001931646002A61D04FF0200A7C
:104AA0008AF31188FFF754F9FEF78AF94FF00008EE
:104AB000314FC346FEF754FAA368002B32D0626927
:104AC000013B511C6161A3602B781370D4E904325F
:104AD0009A4224BFE36863610135B9F1000F01D048
:104AE0002046C847FEF78CF9FFF74AF93B68BB42FE
:104AF00007D0BA699B6892689A4202D21F48FEF7B3
:104B0000BFF88BF31188013E08F101081FD08AF32A
:104B10001188FFF71DF9FEF753F9FEF721FAA36894
:104B2000002BCCD101992046FEF772FF0028C1D09E
:104B3000FEF766F9FFF724F93B68BB4204D0BA6977
:104B40009B6892689A420FD3002383F31188094B24
:104B5000039A1B689A4240460AD105B0BDE8F08F1F
:104B60000748FEF78DF899E70448FEF789F8EBE768
:104B7000FCF7F6FD00080020883E0020B0FB00088E
:104B8000D0FB000800000000000000000000000052
:104B900030B50B490B4A0B680B4D0C4C83B022F01F
:104BA0000702019301980A4B09682A6023F0070362
:104BB0008842236001D103B030BDFCF7D1FD00BFB6
:104BC000000800206F4D0020FC440020F844002025
:104BD00000000220000000000000000000000000B3
:104BE00070B51C4E82B0336801930446202383F3D2
:104BF0001188FFF7ADF8FEF7E3F8FEF7B1F9164AB2
:104C0000164B15681B68E01D20F007005B1B9842DF
:104C10009ABF401910600025FEF7F2F8FFF7B0F8D0
:104C20000F4B1A689A4204D0996993688A689A422D
:104C300009D3002383F31188019A33689A422846E6
:104C400005D102B070BD0748FEF71AF8F1E7FCF78E
:104C500087FD00BF00080020FC440020F84400202D
:104C6000883E0020F0FB000800000000000000006B
:104C700000B50B4B0B481A6883B0019201991A6872
:104C8000094B036091424FF00003C0E9023305D1A4
:104C9000103003B05DF804EBFFF772B9FCF760FD6C
:104CA0000008002000450020E14B00080000000043
:104CB00080B50D4A0D4982B000AF13687B604B6828
:104CC00023F001034B60EFF30983683383F3098812
:104CD000002383F3118879681368994202D1083759
:104CE000BD4680BDFCF73CFD0008002030EF00E031
:104CF000B0B5194C82B000AF23687B60202383F3EA
:104D00001188164B5B6813F4006308D183F3118894
:104D10007A6823689A421DD10837BD46B0BDF1EECE
:104D2000103AEFF309854FF080720D4B45F84C2C8B
:104D3000DB6845F8083CA5F1680383F30988FEF7B2
:104D400097FB18B1074B45F8503CE1E7064B45F897
:104D5000503CDDE7FCF704FD0008002000ED00E01A
:104D600030EF00E0E1020008F4020008000000005B
:104D700010B5184C82B02368019302F099FE1648D2
:104D800004F02EFB00F0D4F800F0EAF900F030FA5D
:104D900000F05EFA00F08CFA00F0BAFA00F0E8FADF
:104DA00000F016FB01F064F901F06AF801F078FDFB
:104DB00001F0E6FE01F0ACFB06F0EAFB019A236885
:104DC0009A4204D102B0BDE8104001F0C1BEFCF728
:104DD000C7FC00BF000800202002010800000000FE
:104DE000F0B51A4D83B02B68019391420E461446DC
:104DF000074619D38B1A1F2B16D806F01F03581C11
:104E00006209012376098340B24203F1FF3304F0C3
:104E10001F0457F822000BD31840E040019A2B687A
:104E20009A4210D103B0F0BD0948FDF729FFE4E72D
:104E300057F82610C4F120020B4020FA04F403FABC
:104E400002F02043EAE7FCF78BFC00BF00080020DB
:104E500000FC00080000000000000000000000004E
:104E6000F0B51D4E83B033680193054670B37E22C2
:104E70007F212846FFF7B4FF80B1012806D000202B
:104E8000019A33689A4225D103B0F0BD28463022FA
:104E90004521FFF7A5FF01308002F1E73E224921BD
:104EA0002846FFF79DFF2F22044631212846FFF7B1
:104EB00097FF5022074653212846FFF791FF013400
:104EC00002370938BC4004FA00F0D9E70348FDF77F
:104ED000D7FECCE7FCF744FC0008002020FC0008CB
:104EE000F0B5104D83B02B680193044698B194F847
:104EF000D63094F8D770019994F8D4602A6894F861
:104F0000D5001B0403EB07633344914203EB0020FD
:104F100005D103B0F0BD0448FDF7B2FEE7E7FCF7AA
:104F20001FFC00BF0008002040FC0008000000003B
:104F300000B5074B83B01A680192019A1B689A4228
:104F400004D103B05DF804EB02F072BEFCF708FC7C
:104F50000008002000000000000000000000000029
:104F600000B50C4B83B01A680192012202700199BE
:104F70001A6800239142C0E90133C0E90333436159
:104F800005D1183003B05DF804EBFEF7F9BFFCF76C
:104F9000E7FB00BF00080020000000000000000048
:104FA00070B51D4D82B02B6801930E46044668B360
:104FB000202383F31188FEF7CBFEFDF701FF237852
:104FC000013B012B02D91548FDF75AFE20466660C9
:104FD00002F07EFE02232370FDF712FFFEF7D0FEE3
:104FE0000F4B1A689A4204D0996993688A689A426A
:104FF00008D3002383F31188019A2B689A4209D1C0
:1050000002B070BD0748FDF73BFEF2E70348FDF72D
:1050100037FECDE7FCF7A4FB0008002070FC000879
:10502000883E002060FC0008000000000000000036
:105030002DE9F041174D82B00446286801900E46D4
:1050400090461F46FDF78CFF3CB136B1B8F1000F1A
:1050500003D0012F04D0FB0702D50F48FDF710FE47
:105060002378022B05D0043B012B02D90A48FDF717
:1050700007FE03232370019A2B6826619A42C4E934
:10508000028705D1204602B0BDE8F04102F0A0BE83
:10509000FCF766FB0008002080FC00080000000010
:1050A0002DE9F041184C82B02568019598460546D7
:1050B0000E461746202383F31188FEF749FEFDF7BD
:1050C0007FFE43463A4631462846FFF7B1FFFDF7DB
:1050D00097FEFEF755FE0D4B1A689A4204D0996967
:1050E00093688A689A4209D3002383F31188019A4E
:1050F00023689A4206D102B0BDE8F0810448FDF76A
:10510000BFFDF1E7FCF72CFB00080020883E0020E3
:1051100060FC00080000000000000000000000002B
:1051200030B50B4C83B023680193054650B1019A0A
:1051300023689A420AD105F1180003B0BDE8304057
:10514000FFF706B80348FDF79BFDF0E7FCF708FB07
:1051500000080020A0FC0008000000000000000083
:1051600000B5074B83B01A680192019A1B689A42F6
:1051700004D103B05DF804EB03F07ABCFCF7F0FA5D
:1051800000080020000000000000000000000000F7
:1051900030B5134B83B01A68019201220270019C52
:1051A0001968002200F1180300F11C0542608361B8
:1051B00000F1200200F12403C561026200F128051C
:1051C00000F1080243628C4200F110038562C0E9DD
:1051D0000222C0E9043301D103B030BDFCF7C0FAAC
:1051E0000008002000000000000000000000000097
:1051F00000B5074B83B01A680192019A1B689A4266
:1052000004D103B05DF804EB04F0CAB8FCF7A8FAC7
:105210000008002000000000000000000000000066
:1052200000B50A4B83B01A680192012202700199FD
:105230001A6800239142C0E9043305D1183003B045
:105240005DF804EBFEF79CBEFCF78AFA000800202C
:1052500000B5074B83B01A680192019A1B689A4205
:1052600004D103B05DF804EB03F022BCFCF778FA3C
:105270000008002000000000000000000000000006
:1052800000B5084B83B01A68019201220270019A9E
:105290001B6800219A42416002D103B05DF804FB13
:1052A000FCF75EFA0008002000000000000000008B
:1052B00000B5074B83B01A680192019A1B689A42A5
:1052C00004D103B05DF804EB05F0E2BCFCF748FA4A
:1052D00000080020000000000000000000000000A6
:1052E00000B5084B83B01A68019201220270019A3E
:1052F0001B6800219A42416002D103B05DF804FBB3
:10530000FCF72EFA0008002000000000000000005A
:1053100000B5074B83B01A680192019A1B689A4244
:1053200004D103B05DF804EB04F072BAFCF718FA8C
:105330000008002000000000000000000000000045
:1053400000B50A4B83B01A68019201220270019ADB
:105350001B6800219A42416005D10C3003B05DF812
:1053600004EBFEF70DBEFCF7FBF900BF00080020C0
:1053700000B5074B83B01A680192019A1B689A42E4
:1053800004D103B05DF804EB05F052BAFCF7E8F97C
:1053900000080020000000000000000000000000E5
:1053A00000B5084B83B01A68019201220270019A7D
:1053B0001B6800219A42416002D103B05DF804FBF2
:1053C000FCF7CEF9000800200000000000000000FB
:1053D00000B5074B83B01A680192019A1B689A4284
:1053E00004D103B05DF804EB05F042BDFCF7B8F959
:1053F0000008002000000000000000000000000085
:1054000000B5094B83B01A6801920122027001991C
:105410001A68002391424360C360037402D103B051
:105420005DF804FBFCF79CF9000800200000000078
:1054300070B5214E82B0336801930D4604460028B2
:1054400033D0002931D0202383F31188FEF780FC6C
:10545000FDF7B6FC2378013B012B02D91748FDF775
:105460000FFC65606B68A360204605F041FD0022DB
:105470000223E2602370FDF7C3FCFEF781FC104BB2
:105480001A689A4204D0996993688A689A4208D344
:10549000002383F31188019A33689A4209D102B03C
:1054A00070BD0848FDF7ECFBF2E70448FDF7E8FBA8
:1054B000C9E7FCF755F900BF00080020C0FC000850
:1054C000883E0020B0FC0008000000000000000042
:1054D00070B51C4E82B0336801930C46054650B33C
:1054E000202383F31188FEF733FCFDF769FC2B784A
:1054F000022B02D01448FDF7C3FBAB69AC60013C42
:10550000DC62FDF77DFCFEF73BFC104B1A689A420B
:1055100004D0996993688A689A4208D3002383F378
:105520001188019A33689A4209D102B070BD0848C7
:10553000FDF7A6FBF2E70448FDF7A2FBD0E7FCF776
:105540000FF900BF00080020D0FC0008883E0020B2
:10555000B0FC000800000000000000000000000097
:10556000F0B5214E83B0336801930D4617460446CB
:1055700078B3037C8B422CD9202383F31188FEF768
:10558000E7FBFDF71DFC2378022B02D01748FDF73F
:1055900077FBE3680122AA401343E3603A462946B9
:1055A000204605F08DFDFDF72BFCFEF7E9FB104BC7
:1055B0001A689A4204D0996993688A689A420CD30F
:1055C000002383F31188019A33689A4209D103B00A
:1055D000F0BD0648FDF754FBCEE70648FDF750FB4B
:1055E000EEE7FCF7BDF800BF00080020E0FC000873
:1055F000883E0020B0FC0008000000000000000011
:1056000070B5204E82B0336801930D46044678B3DE
:10561000037C8B422CD9202383F31188FEF798FB5F
:10562000FDF7CEFB2378022B02D01748FDF728FBAD
:10563000E3680122AA4023EA0203E36029462046E8
:1056400005F056FDFDF7DCFBFEF79AFB0F4B1A68E1
:105650009A4204D0996993688A689A420CD30023CD
:1056600083F31188019A33689A4209D102B070BD60
:105670000548FDF705FBCEE70548FDF701FBEEE722
:10568000FCF76EF80008002000FD0008883E0020AE
:10569000B0FC000800000000000000000000000056
:1056A00030B51E4D83B02B680193044680B3202390
:1056B00083F31188FEF74CFBFDF782FB2378022B66
:1056C00002D01748FDF7DCFA63689B68E3B1204617
:1056D00005F02EFDFDF794FBFEF752FB114B1A6807
:1056E0009A4204D0996993688A689A4208D3002341
:1056F00083F31188019A2B689A420DD103B030BD13
:105700000948FDF7BDFAF2E70548FDF7B9FADEE70B
:105710000348FDF7B5FACAE7FCF722F800080020B5
:1057200020FD0008883E0020B0FC000800000000BA
:1057300070B5294E82B0336801930D4604460028A7
:1057400032D0037C8B422FD9202383F31188FEF7BC
:10575000FFFAFDF735FB2378022B02D01F48FDF737
:105760008FFAE368EB40DB0726D5636803EBC503DC
:105770001B6953B32946204605F0FAFCFDF740FBB0
:10578000FEF7FEFA164B1A689A4204D0996993689C
:105790008A689A420CD3002383F31188019A3368F4
:1057A0009A4216D102B070BD0C48FDF769FACBE7FA
:1057B0000C48FDF765FAEEE70848FDF761FA636803
:1057C00003EBC5031B69002BD4D10448FDF758FA3D
:1057D000D0E7FBF7C5FF00BF0008002040FD000830
:1057E000883E0020B0FC000800000000000000001F
:1057F00070B5104D82B02B6801930E46044650B12F
:1058000049B12379052B0CD00120019A2B689A42CB
:105810000ED102B070BD0848FDF732FA2379052B8E
:10582000F2D1A36A73604FF4007333600020ECE799
:10583000FBF796FF00080020D0FD000800000000E4
:105840002DE9F047DFF89C8386B002AFD8F800302E
:10585000FB600446002800F019812379022B01D057
:10586000052B2BD103232371204603F0B9F9002225
:105870001146204603F02CFA07F108034FF4D572C5
:105880000821204603F06CFAE0B9BB680122C3F39B
:1058900003239342226300F0FD80204603F0D8F9F1
:1058A000022323710125FA68D8F800309A4228466D
:1058B00040F046811037BD46BDE8F087C048FDF78F
:1058C000DFF9CFE707F1080300223721204603F074
:1058D00047FA002840F0BE80BB68BA4A1A40002A46
:1058E00040F0B88022631146204603F0F1F9266BA0
:1058F00006F00F03022B00F0AF80B34EB34ADFF87F
:10590000C492012B18BF1646642504E0013DC4D0A3
:105910000A20FDF78DFF07F10803002237212046FA
:1059200003F01EFA0028B8D1BB6813EA090FB4D1FE
:1059300007F1080332462921204603F0E9F900283F
:10594000ABD1BB68002BE1DA5B0003D5236B43F0DE
:105950001003236304F1080300220221204603F010
:10596000F7FA002899D1024604F1380303212046B2
:1059700003F0F6F9002890D104F118052B46A26B2C
:105980000921204603F0E4FA002886D13B1DA26BD2
:105990000721204603F0E4F9824600287FF47DAF1A
:1059A000236B03F00F03022B00F097806E467E22DC
:1059B00090B07F212846FFF713FA0DF1080900285F
:1059C00079D10146B546204603F02AF9236B03F04E
:1059D0000F03022B00F096802846FFF741FAA062E1
:1059E0003B1D4FF400721021204603F0B9F9054623
:1059F00000287FF452AF7B68724E33427FF44DAF84
:105A0000236B03F00F03012B40F2B280022B7FF4D3
:105A100044AFE36A1A79012A00F0A88017D3022A5A
:105A200040F0E2806A4E1979204603F029F907F127
:105A3000080332460621204603F092F900287FF43D
:105A40002CAFBA685F4B1340002B7FF426AF0523C1
:105A5000237128E7022323635E4E642505E0013DA0
:105A60003FF41BAF0A20FDF7E3FE07F108033246BF
:105A70000121204603F04CF900287FF40EAFBB68EB
:105A8000002BECDA5B007FF565AF5FE74C48FDF774
:105A9000F7F8E2E6024607F108033721204603F053
:105AA0005FF900287FF4F9AEBA68464B1340002B2B
:105AB0007FF4F3AE1BE7CDF800A006234022494651
:105AC000204603F075FA00284ED199F80D3013F0F6
:105AD000020337D11946B54675E7E36A1B687BB107
